:020000040000fa
:04005c000e0300008f
:020000040000fa
:04000c000e030000df
:020000040000fa
:040070000e0300007b
:020000040000fa
:040074000e03000077
:020000040000fa
:040134000e030000b6
:020000040000fa
:04015c000e0300008e
:020000040000fa
:040038000e030000b3
:020000040000fa
:040060000e0300008b
:020000040000fa
:040088000e03000063
:020000040000fa
:0400b8000e03000033
:020000040000fa
:04001c000e030000cf
:020000040000fa
:040010000e030000db
:020000040000fa
:04002c000e030000bf
:020000040000fa
:04003c000e030000af
:020000040000fa
:0400bc000e0300002f
:020000040000fa
:0400c0000e0300002b
:020000040000fa
:040260000e03000089
:020000040000fa
:040028000e030000c3
:020000040000fa
:040078000e03000073
:020000040000fa
:04009c000e0300004f
:020000040000fa
:0401b8000e03000032
:020000040000fa
:0401bc000e0300002e
:020000040000fa
:0401c0000e0300002a
:020000040000fa
:0401c4000e03000026
:020000040000fa
:0401c8000e03000022
:020000040000fa
:0401cc000e0300001e
:020000040000fa
:0401d0000e0300001a
:020000040000fa
:0401d4000e03000016
:020000040000fa
:0401d8000e03000012
:020000040000fa
:0401dc000e0300000e
:020000040000fa
:0401e0000e0300000a
:020000040000fa
:0401e4000e03000006
:020000040000fa
:0401e8000e03000002
:020000040000fa
:0401ec000e030000fe
:020000040000fa
:0401f0000e030000fa
:020000040000fa
:0401f4000e030000f6
:020000040000fa
:0401f8000e030000f2
:020000040000fa
:0401fc000e030000ee
:020000040000fa
:040200000e030000e9
:020000040000fa
:040204000e030000e5
:020000040000fa
:040208000e030000e1
:020000040000fa
:04020c000e030000dd
:020000040000fa
:040210000e030000d9
:020000040000fa
:040214000e030000d5
:020000040000fa
:040218000e030000d1
:020000040000fa
:04021c000e030000cd
:020000040000fa
:040220000e030000c9
:020000040000fa
:040224000e030000c5
:020000040000fa
:040228000e030000c1
:020000040000fa
:04022c000e030000bd
:020000040000fa
:040230000e030000b9
:020000040000fa
:040234000e030000b5
:020000040000fa
:040238000e030000b1
:020000040000fa
:04023c000e030000ad
:020000040000fa
:040240000e030000a9
:020000040000fa
:040244000e030000a5
:020000040000fa
:040248000e030000a1
:020000040000fa
:04024c000e0300009d
:020000040000fa
:040250000e03000099
:020000040000fa
:040254000e03000095
:020000040000fa
:040258000e03000091
:020000040000fa
:04025c000e0300008d
:020000040000fa
:040268000e03000081
:020000040000fa
:040064000e03000087
:020000040000fa
:04007c000e0300006f
:020000040000fa
:040080000e0300006b
:020000040000fa
:040084000e03000067
:020000040000fa
:0400b0000e0300003b
:020000040000fa
:0400b4000e03000037
:020000040000fa
:0400c4000e03000027
:020000040000fa
:0400c8000e03000023
:020000040000fa
:0400cc000e0300001f
:020000040000fa
:0400d0000e0300001b
:020000040000fa
:0400d4000e03000017
:020000040000fa
:0400d8000e03000013
:020000040000fa
:0400dc000e0300000f
:020000040000fa
:0400e0000e0300000b
:020000040000fa
:0400e4000e03000007
:020000040000fa
:0400e8000e03000003
:020000040000fa
:0400f4000e030000f7
:020000040000fa
:0400f8000e030000f3
:020000040000fa
:0400fc000e030000ef
:020000040000fa
:040100000e030000ea
:020000040000fa
:040104000e030000e6
:020000040000fa
:040108000e030000e2
:020000040000fa
:04010c000e030000de
:020000040000fa
:040114000e030000d6
:020000040000fa
:040118000e030000d2
:020000040000fa
:04011c000e030000ce
:020000040000fa
:040120000e030000ca
:020000040000fa
:040124000e030000c6
:020000040000fa
:040128000e030000c2
:020000040000fa
:040138000e030000b2
:020000040000fa
:04013c000e030000ae
:020000040000fa
:040140000e030000aa
:020000040000fa
:040144000e030000a6
:020000040000fa
:040148000e030000a2
:020000040000fa
:04014c000e0300009e
:020000040000fa
:040150000e0300009a
:020000040000fa
:040154000e03000096
:020000040000fa
:040158000e03000092
:020000040000fa
:040160000e0300008a
:020000040000fa
:040164000e03000086
:020000040000fa
:040168000e03000082
:020000040000fa
:04016c000e0300007e
:020000040000fa
:040170000e0300007a
:020000040000fa
:040174000e03000076
:020000040000fa
:040178000e03000072
:020000040000fa
:04017c000e0300006e
:020000040000fa
:040180000e0300006a
:020000040000fa
:040184000e03000066
:020000040000fa
:040188000e03000062
:020000040000fa
:04018c000e0300005e
:020000040000fa
:040190000e0300005a
:020000040000fa
:040194000e03000056
:020000040000fa
:040198000e03000052
:020000040000fa
:04019c000e0300004e
:020000040000fa
:0401a0000e0300004a
:020000040000fa
:0401a4000e03000046
:020000040000fa
:0401a8000e03000042
:020000040000fa
:0401ac000e0300003e
:020000040000fa
:0401b0000e0300003a
:020000040000fa
:0401b4000e03000036
:020000040000fa
:040264000e03000085
:020000040000fa
:04006c000e0300007f
:020000040000fa
:0400f0000e030000fb
:020000040000fa
:040018000e030000d3
:020000040000fa
:040030000e030000bb
:020000040000fa
:040040000e030000ab
:020000040000fa
:04008c000e0300005f
:020000040000fa
:040090000e0300005b
:020000040000fa
:040008000e030000e3
:020000040000fa
:040274000e03000075
:020000040000fa
:040278000e03000071
:020000040000fa
:04027c000e0300006d
:020000040000fa
:040280000e03000069
:020000040000fa
:04026c000e0300007d
:020000040000fa
:040270000e03000079
:020000040000fa
:040110000e030000da
:020000040000fa
:040024000e030000c7
:020000040000fa
:040068000e03000083
:020000040000fa
:0400ec000e030000ff
:020000040000fa
:04004c000e0300009f
:020000040000fa
:040050000e0300009b
:020000040000fa
:0400a8000e03000043
:020000040000fa
:0400ac000e0300003f
:020000040000fa
:040020000e030000cb
:020000040000fa
:040014000e030000d7
:020000040000fa
:040044000e030000a7
:020000040000fa
:040048000e030000a3
:020000040000fa
:040094000e03000057
:020000040000fa
:040098000e03000053
:020000040000fa
:04012c000e030000be
:020000040000fa
:040058000e03000093
:020000040000fa
:040130000e030000ba
:020000040000fa
:0400a0000e0300004b
:020000040000fa
:0400a4000e03000047
:020000040000fa
:080000000002040000000000f2
:020000040000fa
:10040000af7521000eff27000e01880000000000dc
:10041000000020000000e000020032000001200087
:10042000200288000e000700a08a220001002000a0
:10043000810f7000010032001d0007000000200045
:100440000000e00002003200000002000000000096
:10045000d42a0200000000000040da000000fe0084
:10046000200920000000e0000200320000202000ef
:100470009001880000000600f03fb1000180b1004b
:1004800006003500ee03090000000000403fb10007
:100490000180b100fbff3d001000b000203fb00024
:1004a0000200350000800900000000000000060086
:1004b000a1028800800478000000eb001f003700d4
:1004c000e284440054a0b4009905ba00e2844400d8
:1004d00054a0b4009906ba00e284440054a0b400c9
:1004e0000006eb00476fde00fd07b200ae0188009a
:1004f000636ce10003003a000ad801000000eb0041
:100500000e003700606ce10008003a00004deb007f
:100510000a05e800020039003420ec000af0a000cf
:100520008b05e900f9ff3e00040037006168e10037
:10053000010032000086eb000b00070019c7ba006b
:100540001905ba000e04e00003003a000a00e000ba
:10055000dbff3a0000000600fe07b200ae02880092
:100560008a047800f5ff37000cd0a300e20f4d009d
:100570001c00390089027800354dba000a05e800f0
:10058000020039003420ec000af0a0008b05e900dd
:100590000f003200254dba000a05e80002003900bc
:1005a0003420ec000af0a0008b05e90008003200be
:1005b0000c00e0000600320015cdba000a05e80084
:1005c000020039003420ec000af0a0008b05e9009d
:1005d0008984e80054a0b4000b00e000e2ff3a0078
:1005e000000006009902ba00055d78008b05e9005d
:1005f000f7ff3200c82ade00055d78008b05e900b0
:10060000f3ff32000c00e000f1ff320019ddba0008
:10061000eeff3700da030400000000000040da00bb
:100620000000fe00889fbe0000047800819a8000d0
:100630000100e00002003200010078000d003700e8
:10064000919a80002035210004003700910f54005a
:10065000250036000180e800910090000100e000d4
:10066000faff3a0010003700920f54001e003600c7
:100670000280e800100178000200e000faff3a0072
:1006800011017800919a8000203521000400370084
:10069000910f5400140036000180e8009100900092
:1006a000828f5000faff3a00a99a8000888f540088
:1006b000010031008804780009007800a7000700d5
:1006c0000000e00004003a00888f5400050032006a
:1006d0008904d100f5ff37000918780051000700a0
:1006e000d2ff37000000eb004f04be000000060000
:1006f000881f7800630440000800a1008000eb0020
:10070000800f540021003600e30f540001003e002a
:100710004800200008007800c2ff07008000eb00be
:100720000000e0001900320090007800910178008c
:1007300064815100880f51000300310011019000c5
:10074000020878000700370008814000020878009e
:100750009101900013019800100178001109140014
:1007600088087800100178000000eb000200e0002b
:1007700004003200920190000300e000010032000a
:100780000280e800809a88008180e80001007800fb
:100790004f04780000000600800178000200370056
:1007a000b15978000201e9000200e000fcff3a00c4
:1007b00000000600881f7800020478000801780015
:1007c000f5ff0700080040004f0478000000060015
:1007d0000000fa00881f780000047800ea815700c2
:1007e0003fb9970088007800a03d20006500070011
:1007f0000000e0000200350000044400004ceb0063
:100800004f0478000080fa000000060080007800a5
:10081000010178003104e000fdff3a0000005100c2
:10082000000006000000e0002f003200c001780048
:10083000e38f51002c0036000308a3002a003a0081
:10084000919a80000100e00002003200810f500008
:100850000400310011009800909a880016003700bb
:1008600082007800110190000200e00002003200d6
:10087000800f5100faff3900110278008482400095
:10088000850f500018003900808f520003003a0095
:100890008308420001007800070037000200e000f2
:1008a0000300320083014000830f51000e00390025
:1008b0001200980090009800900090000100e00065
:1008c0000900320010014000828f500006003a00fb
:1008d000023521000009eb001001780011084100e9
:1008e000910090001100980000000600800178003f
:1008f00002003700815978000201e9000200e0009f
:10090000fcff3a0000000600889fbe0081047800ca
:10091000194478000804e0000e0032000600370099
:10092000d24178000304e0000a003200d1cf110068
:10093000fbff32000000e8008800fb00c300070056
:100940000000e00003003200090178008000780018
:10095000f3ff37004f04be0000000600800078005f
:100960000000eb000100e000050034000100780009
:10097000d4060700e10f400001003a000000eb0040
:10098000000006006200fa00889fbe008a1f7800ff
:100990000005780081047800020478008300780064
:1009a00080f92f000f004000b40007009a979f00c5
:1009b000a9979f000000eb00b09f9f001885fb00e7
:1009c0008a04fb000a05ea004f55de0050022000b1
:1009d000808f54000d003200e10f55000b003a00eb
:1009e0000a017800880078002f9097009f91970067
:1009f00003000100a0979f000000e0008e0032007d
:100a00003f9897000000e800b09f9f000a04440050
:100a100050022000808f5400040032000900e000e2
:100a2000e6ff3a003f989700840037000000eb0093
:100a3000909f9f00809f9f00f0979f00e0979f00ee
:100a4000d0979f00c0979f0007003700a134210076
:100a50000100500000004000e13321008080400090
:100a60005f98970011007000d09f9f008804780065
:100a700009047800384578008a00fb00a034210082
:100a8000720007000000e000f0ff3a00a1c2b300ce
:100a9000814f55000e003a00cf8897000180e90091
:100aa000c08f9f0010007800c09f9f000000e000f2
:100ab00005003d000000ea00c09f9f005f9897007e
:100ac0000020a000d09f9f000904e8000f0037001d
:100ad000c09f9f000000eb0005003700f2ff2700d9
:100ae000820f500002003200ea00b900008040008e
:100af0000904780088047800b900fb000103b10004
:100b0000e98f5000f5ff3600c09f9f00e0c2b300a0
:100b1000984f1000020032000080eb0019003700ef
:100b2000a0c2b300d84f100007003a00cf8897004a
:100b30000180e900c08f9f0010007800a09f9f00f7
:100b40000804e800100037000000eb00a09f9f00a1
:100b50008800780005003700f3ff2700830f50005e
:100b600002003200ea00b9000000410001047800f0
:100b7000880078003101fb000203b100e90f510049
:100b8000f5ff3600a09f9f00984478008900fb0085
:100b9000603321002d0007000000e0000200320059
:100ba0000804e800010037008044eb00c97f9f0083
:100bb00080c6b30080cf540004003a0098cf1400e0
:100bc0000a003a006640500006003700c0c6b30075
:100bd00080cf540005003a0098cf140003003a007b
:100be00065404000c07f9f000804e8001801fb003a
:100bf000e3fb2f008f81410081f92f008f8040009f
:100c0000a0f92f000f0040001e0007000000e000c8
:100c100009003a00e1fb2f008f804000a0f92f006f
:100c20000f0040006c0107000000e00002003500ea
:100c30000804e80061ff37000080eb004f057800f2
:100c40004f04be000080fa000000060002003700da
:100c50000304e00006003200000178000200780082
:100c6000b041780081cf5100f9ff3a000100370010
:100c70000001eb0002007800000006000108780087
:100c800000000600889fbe008a1f780000047800dc
:100c9000824478000305780070c6b30080cf54000a
:100ca0001a003c0000c0e90080cf5400cc003d0099
:100cb0006d40500080cf5400790032000b003c00a2
:100cc0007140500080cf540037013c0000c0e90063
:100cd00080cf5400c2003d0050c2b30080cf54000a
:100ce0002e0132007c4040000500370030c6b300c2
:100cf00080cf54001a0032001f003c0000c0e90001
:100d000080cf540028013a00b5003700f0c6b30088
:100d100080cf54006200320007003c006640500063
:100d200080cf5400140032006540400080cf540052
:100d30001d013a00d600370050c7b30080cf5400e1
:100d4000570032006340400080cf5400540032000e
:100d500002c7b30082cf540013013a0001013700eb
:100d60001181e900820878007800900000054500b4
:100d7000124d78001201370028609000c2c6b300ff
:100d8000824f500007003a001101780064005100c2
:100d9000800878001000be004f89de0082017800d4
:100da0001100370012c7b300824f50000300320019
:100db000a2c6b300824f500006003a00110178002d
:100dc00068005100800878005001be004000be005d
:100dd000050037001180e9008008780010007800d5
:100de000cf80de006109b900009cbe000294be0005
:100df0002862900085c6b300854f52000d00320076
:100e000025c6b300854f520004003a000000fb00e5
:100e1000cf80de006109b9000800370045c7b30084
:100e2000854f520003003200e6c24200854f520057
:100e300004003a00cf80de006109b900009cbe00ca
:100e40000294be003802be002803be007800900065
:100e5000e00f5200e08f5a00e00f5b00e08f5b0074
:100e600003003d0080004500d2c2b3000a003700f5
:100e7000881090000118a300030032008000450094
:100e8000b2c2b300040037000108a3004f003200d3
:100e90008000450002c2b300824878004900370054
:100ea00028609000c2c6b300824f500006003a008e
:100eb0001101780064005100800878001000be0025
:100ec0006011b8001100370012c7b300824f500004
:100ed00003003200a2c6b300824f500006003a0061
:100ee0001101780068005100800878005001be00b0
:100ef0004000be00050037001180e900800878003e
:100f0000100078008000eb006011b800009cbe006b
:100f10000294be002862900085c6b300854f52003f
:100f20000d00320025c6b300854f520004003a0080
:100f30000080fb008000eb006011b8000800370063
:100f400045c7b300854f520003003200e6c242009d
:100f5000854f520004003a008000eb006011b80099
:100f6000009cbe000294be00081090000038a30050
:100f7000160032003800be002801be00e00f50000d
:100f8000e08f5800e00f5900e08f59000f00320049
:100f900080c7b30080cf54000300320080c5b30087
:100fa00080cf540009003a0078009000800045008e
:100fb00002c3b300824878000000e80080004500ca
:100fc000894878000000e8007004980078009000dc
:100fd000000545006a049800894078006c003700dd
:100fe00028619000c0c4b300804f510006003a0051
:100ff0001101780068005100800878005001be009f
:101000004000be0005003700110178006400510067
:10101000800878001000be0034060700009cbe0067
:101020000294be00b8009000780090000100e0003b
:1010300003003d0080004500d2c2b3000a00370023
:10104000881090000118a3000300320080004500c2
:10105000b2c2b300040037000108a300050032004b
:101060008000450002c2b300824878000000e8001a
:101070007004980078009000000545006a0498000c
:101080008900fb00080078000f0107004e003700c0
:1010900028619000c3c6b3001180e900834f51005e
:1010a000240032000a003c00e4c15100834f51008b
:1010b0002700320083c1e800834f51001500320041
:1010c00020c6b300804f510020003a000a003700cc
:1010d00043c7b300834f51001d003200e6c14100f9
:1010e000834f51001a00320010c7b300804f5100e7
:1010f00016003a00060037001180e90080087800e9
:1011000010007800485c9000084878002e003700f6
:101110001180e9008008780010007800680a9000cb
:10112000cfa2de00612bb9000498be000690be007d
:1011300025003700800878001000780068099000ca
:10114000cf91de000288be001f0037001180e90049
:101150008008780010007800680c9000080878007b
:10116000190037001181e900820878001202780026
:10117000cfa2de00612bb900049cbe000694be0025
:10118000f8009000010545006a049800804078004e
:1011900008007800f40107000b0037007800900089
:1011a0000005450005003700780090000005450067
:1011b0000904e00001003a0059c2b300094d78006b
:1011c0000000e800700498000000eb004f05780074
:1011d0004f04be00000006000400fa00889fbe0015
:1011e0008a9fbe008c1f78000004780001067800fa
:1011f000f80d900078009000808555000808900058
:1012000080855500180890008085550028089000ba
:10121000808555003808900080855500480890006a
:10122000808555000002220090bf9f00000323002c
:10123000a0bf9f00081090000028a30015003a00ee
:101240000b00e000130034000b0578008a047800de
:10125000e20f55000100360029002000c80190006f
:1012600009017800ee80570058009000030001004b
:10127000500498000000e0008c00320068089000e4
:1012800009004000600c9800090555004240a90083
:10129000eeff3c00780190000200e0000c003400fa
:1012a000c80190008c0078005800900003000100f5
:1012b000500498008080eb000000e0007c003200c9
:1012c000e80890007800900000804000600c9800d2
:1012d000880c90000900e000110034000905780036
:1012e000e28f5400010036002a002000c80190005f
:1012f0000a017800ec8057005800900003000100bc
:10130000500498000000e000680032006808900077
:101310000a004000600c98008a845400edff3700fa
:10132000180990000200e0000c003400c801900091
:10133000e80090005800900003000100500498005d
:101340008080eb000000e00059003200e8089000c7
:101350001808900000804000600c9800a80c9000d5
:101360000900e0001100340009057800e28f540004
:10137000010036002a002000c80190000a01780010
:10138000ec805700580090000300010050049800c2
:101390000000e00045003200680890000a004000ac
:1013a000600c98008a845400edff370038099000e3
:1013b0000200e0000e003400e800900018089000e1
:1013c00080804000c8019000580090000300010098
:1013d000500498008080eb000000e00034003200f0
:1013e000e80890003808900000804000600c9800e9
:1013f000c80c90000900e0001100340009057800d5
:10140000e28f5400010036002a002000c80190003d
:101410000a017800ec80570058009000030001009a
:10142000500498000000e00020003200680890009e
:101430000a004000600c98008a845400edff3700d9
:10144000081090008000eb000028a3001800320074
:101450000b00e000160034008b04780009057800ca
:10146000e28f5400010036002a002000c8019000dd
:101470000a017800ee805700580090000300010038
:10148000500498000000e000080032006808900056
:101490000a004000600c98008a8454004240a90071
:1014a000eeff3c008000eb00010037008080eb0085
:1014b000010078004f0678004f05be004f04be00c3
:1014c0000080fa00000006002f04b000889fbe00d4
:1014d0008a9fbe008c9fbe008e1f78000007780098
:1014e00081f79f003e04be002e05be005e089000fe
:1014f0000000e00002003d0060002000500f980056
:101500008e00780020fb2f000f0040004d020700e6
:10151000e20f50000a003a0030002000100f98003f
:10152000b1c9b3000ff0970081404000c0222100f4
:10153000e1cf50000d003e00802221000b0037005b
:101540000000e0000f00340030002000100f980071
:10155000b1c9b3000ff19700814041004023210041
:10156000e1cf500001003e0000232100ee0090007a
:10157000b0487800b068780010407800904098003b
:10158000f30037000000e00005003a0022fb2f00c6
:101590000f014100001978008001eb00e7003700df
:1015a0006022b8006033b8000800be000a01be0027
:1015b000ed0407000000e00001003d000bf0a20078
:1015c000705927009f9897000088b900026a280088
:1015d00013002000e9040700640650009c9f9f0050
:1015e00013003b0063061600c0ff2f0000066600d4
:1015f0008c01ea00939f9f008d2321000800be000c
:101600000a01be00070037000c08a30003003200e7
:101610003d02be002d03be00e70407000c86d1008a
:10162000e88646000c00e000f7ff3c001800370099
:101630000c00e00018003200c0ff2f00000666001a
:101640009c9f9f008d2321006000b80002002000b5
:1016500003ff2300070037000c08a300030032003b
:101660003d02be002d03be00d30407000c86d1004e
:10167000e88646000c00e000f7ff3c000002be00d8
:101680000203be000800be000a01be003f050700bd
:101690000004be000205be00de08900060c6b30074
:1016a0000ff29700804f52000400320060002000cb
:1016b00062c4b300824f520002003a009f9a970022
:1016c0006a80420081004000f1b79f00010378006a
:1016d000f30f53000200340037012000f7b79f00da
:1016e00000c3b300c0779f0056fb2f000f034300d9
:1016f0000e007800a0b79f00060778003d00370075
:101700000800be000a01be007a0507000006be0000
:101710007fb1970068015100f2b79f004240a900d5
:101720000c0034009f0507000002be000203be004b
:101730000800be000a01be009d0507006022b80037
:1017400046782d00771924009b0407000004be0092
:101750000205be00e80047008e0020000802be001f
:101760000a03be00b4b79f00c5b79f00d6b79f005d
:10177000e7b79f000c01be00010478000c003700a1
:10178000a400200005002000c0fd2f000f00400035
:10179000d60107006fa89700ffa897000fb1970028
:1017a0009fb1970005c3b300056441000001be006e
:1017b000e00f5100e08f5900030034000e07e900ec
:1017c000e10f4700eeff3a00880078003fb4970031
:1017d000cfb497005fb59700efb5970002003700d0
:1017e00000c3b300806078000e07e900fcff3b00f7
:1017f000688740007fb397000600e00007003400d0
:101800006022b8006033b8000800be000a01be00c4
:10181000690507000000e000b9ff3c000e037800f6
:101820002fb7970051fb2f008f804000010353001a
:101830009f9b970067804300909f9f0002003700a6
:101840000603e9000000e900010178008200780049
:1018500003c3b300b1cf1100f9ff3200909f9f0086
:10186000de09900061c6b3000ff29700814f52006d
:101870000300320061c4b300814f520002003a00fd
:101880000000e8000a0037001000200051c6b30035
:101890008ff2970081cf520005003200054078009a
:1018a00050c4b2000080fb000000e9004f00de00e1
:1018b00083014000868f51000100340086017800ca
:1018c0000300e0001d00350000c3b300868f510007
:1018d00006003d00030241006940400041c3b300df
:1018e00094cf100001003c00694050008300e900e3
:1018f0008100410001003700840178000302e90003
:1019000001037800a142780080cf5200faff320034
:1019100091c3b300814f500001003a00054be8002d
:101920000400e00005003d000201e9008301e80039
:101930001f9b97000603e800969f9f008ff3970078
:101940008700fb001f9a97000e0078007c010700bb
:101950004f0778004f06be004f05be004f04be0083
:101960002f04b10000000600fc874700889fbe00de
:101970008a9fbe008c9fbe008e1f780000067800f4
:1019800080c5b30080cf50000a003200774040008d
:1019900080cf50000a0032006940400080cf5000e4
:1019a0000b0032005032210080bf9f00ae002000ab
:1019b0000a0037004231210082bf9f000600370035
:1019c0005332210083bf9f008e00200003003700a8
:1019d0005432210084bf9f000e0120003c02be0053
:1019e0002c03be000605be000404be0040c6b300c2
:1019f00080cf5000030032006540400080cf50008f
:101a00000b003a00e00f5200e08f5a00e00f5b003d
:101a1000e08f5b0006003d006000b8006011b80078
:101a20000404500085845800060559008785590034
:101a3000e80f57000400320040002000f00f57006c
:101a40003a003a000100370030002000e00f540057
:101a5000e08f5c00e00f5d00e08f5d0004003a0065
:101a6000dc0890008d0120000100e000070032003a
:101a70008e00e900888060008fba97008180420064
:101a800091407800f1ef9f007d01200080007800f8
:101a90008100e900050033008b05d1000a85d300e1
:101aa0008984d3000884d300f9ff3700089ebe0064
:101ab0000a96be00130037008d06e9008e00e9008b
:101ac000848060000fb997008100410011417800c7
:101ad00083fd2f008d81410082f77900800178001d
:101ae0008301e900050033008783d1000683d3001a
:101af0008582d3000482d300f9ff3700049ebe0024
:101b00000696be003c02be002c03be00e00f520051
:101b1000e08f5a00e00f5b00e08f5b009100340023
:101b20000d00e000e4ff3c008e0037002c609000c8
:101b300081c6b300814f50000b00320006003c000c
:101b40000004e00008003200e6c05000814f500061
:101b500052003a0004003700c1c6b300814f500064
:101b60004e003a00230037000800e00004003a006d
:101b70005c0890008d0120000000e00007003200aa
:101b8000110009000e84d8000fba9700010042002e
:101b900010407800f0ef9f007d0120001100090047
:101ba0000e84d8000b003700110009000e04d80085
:101bb0008d06e9008e81b900020454008fb89700a9
:101bc000088440009841780082fd2f000d014100fb
:101bd00083777900000478000800e00002003200fa
:101be0000d00e000f0ff3c00cfc4de00614db90005
:101bf00027003700e00f5400e08f5c0004003a003b
:101c00005c0890008d0120000000e0000800320018
:101c10006171b9000800be006c0407000fba97009c
:101c20008000420091407800f1ef9f007d0120008c
:101c30006171b9000800be00430207000c003700c4
:101c40006171b9000800be004c0307008d06e90071
:101c500080f1b900020454008fba97000884420052
:101c60009841780082fd2f000d01410083777900b3
:101c70000004be00e00f5000e08f58000200320068
:101c80000d00e000eeff3c004fcdde008a0578003d
:101c9000089ebe000a96be0032003700e00f5400d6
:101ca000e08f5c00e00f5d00e08f5d0004003a0013
:101cb0005c0890008d0120000000e0000a00320066
:101cc0006172b900612bb9000800be000a01be00b4
:101cd000b00407000fba97008000420091407800de
:101ce000f1ef9f007d0120006172b900612bb90006
:101cf0000800be000a01be009f0407000e00370066
:101d00006172b900612bb9000800be000a01be0073
:101d1000a40407008d06e90080f2b9000404540011
:101d20008fba9700088442009842780084fd2f0003
:101d30000d02420085777a00009ebe000296be002a
:101d40003c04be002c05be00e00f5400e08f5c0098
:101d5000e00f5d00e08f5d00020034000d00e00048
:101d6000e7ff3c00e80f570010003a000c1090000d
:101d70000038a3000d003200f78f560006003e0029
:101d800080fd2f000d004000ef40780000c3b3003d
:101d900080cf50000500320002c3b30071fd2f0058
:101da0008d8040008d06e90082f77800788116006a
:101db000120e98006c00900083fd2f008f8141006f
:101dc0008d80410074fa07001c089000dc08900028
:101dd000810f500006003d0000805000000e98006a
:101de0000c1090000040a100001698000f00370072
:101df0000100e0000d003d008c109000f4806000b8
:101e0000f08f500009003a007c099000fc0090001f
:101e1000810051000c099000828050000080500029
:101e20004240a90001003400000e98004f077800de
:101e30004f06be004f05be004f04be00cf01b100eb
:101e400000000600889fbe0000047800e684400081
:101e50001900d0004500de00f27f2000820f500004
:101e600010003a00000ceb00990478006f816400c8
:101e7000200020001b003a00210190000200e00039
:101e800018003a00110190000200e00015003a002d
:101e9000100020001100e00012003200200020009d
:101ea000100037000000e00004003a000100780054
:101eb0002d0107000000e00008003c00f2002800af
:101ec0001901610001fe2300810c710021c02f0067
:101ed000010c40000080eb0002003700000ceb001a
:101ee0000000eb004f04be0000000600881f7800d1
:101ef0008a9fbe008c9fbe00000478000205be00d1
:101f00000406be000401be000a00be009b020700da
:101f1000008cbe000c01be00a304070000055500a4
:101f200081855d002a0498003b0498000800780031
:101f30004f06be004f05be004f04780000000600ab
:101f4000f0874700889fbe008a9fbe008c9fbe001e
:101f50008e1f780000047800814478000205be00de
:101f6000040678000b00e00002003c001b0020008b
:101f70006a35210060c6b30080cf54000e003200e5
:101f800060c4b30080cf54000b00320070c6b300b1
:101f900080cf54000300320070c4b30080cf5400df
:101fa00085003a00e40f4600830035005808900091
:101fb000800f560080003d000c06e80060c6b300ac
:101fc00080cf54001000320060c4b30080cf5400b2
:101fd0000d003200081090000038a30004003a0001
:101fe00058089000808f550001003d005b0c980060
:101ff000580890000c005000500c980002003b0064
:102000000000eb00500c98009808900068009000c9
:102010000c00e00028003c000100400002c3b300b7
:10202000024878008100e800110c980058089000e0
:102030000000e00003003c00081090000038a300fe
:10204000060032006800900001004000e2c2b300c8
:10205000024878008100e800110c980058089000b0
:102060008c00ea00810f500001003d000006ea00ec
:102070008c00ea00210c9800000646005c0c9800d9
:102080008b0f5600010034000b0678003c0c9800c2
:10209000e800900018089000008040000c017800d3
:1020a0008a007800bcf90700580890000c06500020
:1020b0004c0c9800940037008c8f550019003d009f
:1020c000010040000b0178008a007800b2f9070097
:1020d0001808900000804500100c98008b055600f1
:1020e0002b0c9800d80890000100e00003003c0091
:1020f000881090000138a30007003200e80090002b
:1021000000804000e1c2b300014878003808900028
:102110000000e800300c980058089000400c98002f
:1021200079003700010040000c0178008a00780037
:1021300099f907001808900000004600100c98005c
:102140008c855500d80890000100e00003003c0099
:10215000881090000138a30006003200e8009000cb
:1021600080804000e2c2b300824878000000e800ae
:10217000100c980058089000808f55000100340022
:1021800080057800e800900018089000008040006a
:102190008c0045000b0178007ff9070018089000bb
:1021a0000b004000100c9800580890008b05500060
:1021b0002b0c98005400370018089000e80090009d
:1021c000808040009a4878000000e800100c9800d9
:1021d000d80890000100e00003003c008810900047
:1021e0000138a30006003200e80090008080400023
:1021f000e2c2b300824878000000e800100c9800aa
:10220000580890000000e000100034008b05e90041
:10221000808f55000100340080057800e8009000b0
:1022200018089000008040008a00e8000b01780048
:1022300059f90700180890000b004000100c980096
:10224000580890008b0550002b0c9800e800900077
:102250001808900000804000095878000007e80046
:102260000c00e00004003500b1c2b3000148780062
:102270008e04780004003700d1c2b3000148780012
:102280008e0478000c06ea007d8557008006eb007e
:1022900009003700a20020008c00780072805700ef
:1022a0007d0007007fb097008fb89700016d780020
:1022b000000678008d06e8000c00e000f5ff3c0009
:1022c0000d00e00009003a008e04780000c3b3005e
:1022d000805c7800050037008d06e900fc8057001f
:1022e0000d80400001c3b30090dc40000d00e00011
:1022f000f9ff3c00e80090001808900000804000c2
:1023000080845400390c980008109000740060001c
:10231000f00f50000e003a009808900078009000ee
:1023200000804000a808900001004000b80890001c
:1023300001004000c808900001004000f80890002b
:10234000810f500002003d0000805000000c9800fa
:102350004f0778004f06be004f05be004f04be0079
:102360000f01b10000000600e600400011017800f6
:1023700005002800850261006f0161008208780075
:10238000020032001200200011003700a00190006e
:10239000120020000300e0000d003a0090019000c0
:1023a0000300e0000a003a001000e00008003a00d4
:1023b00036003700640340009608780080017800fa
:1023c000530b7800900978000408780070015100e0
:1023d000110278000400e000f6ff3200130037001d
:1023e00064024000140378004f33de008381410013
:1023f0008308730080017800d3037800cf3bde00b0
:102400001403780006034300068a73001302780061
:1024100004024200100378004f33de008609720088
:1024200090017800038841000201e90091017800e1
:10243000ef8f5100eaff360010003700800178006e
:10244000530378004f33dd001002d10004087300fd
:102450006402400094037800cf3bdd001303d100f9
:1024600086897300110378004f33dd009401d10099
:10247000030a73009108d1000201e800910178007d
:10248000ff8f5100edff3e00ef88610091887200e0
:102490000200780000000600800278000103780046
:1024a000110009000203d80080017800830a780037
:1024b0008299b900820053009102980005007800cb
:1024c00000000600889fbe0080047800c09a80004b
:1024d0000000e00004003a000e0007000084eb005a
:1024e0000000e00008003500c89a80000900e00004
:1024f0000500320009004400060007000000e0006b
:1025000001003d000084eb00080078004f04be008d
:1025100000000600800078000100e00003003a009f
:10252000a0352100c09a8800000005000080eb0063
:10253000a2752100828f500002003e00c19a8800df
:102540000000eb00000006006022b8000602200038
:102550000000d0008180d2000482d2008582d200a7
:102560000000a0000202520083825a0003003100e2
:102570000202420083824a000000a1000603e90033
:10258000f3ff3a00000006004f89de008201780068
:1025900044003700889fbe008a9fbe008c1f7800d1
:1025a000500007005700330003866c006450e100c0
:1025b0002e0032006420e100330032006150e1005f
:1025c0002f0032006120e100310032008585550086
:1025d000eb07b000090020000804200005003700c8
:1025e0000804440089844c000a00310006034300bb
:1025f00087834b000001530081815b00f8ff3300ab
:102600000203be000800a0000804440089844c00b6
:10261000f6ff3900c639dd00830173000100320086
:10262000130020008904d1000884d3000998a30076
:10263000050032000800a7000300a0008904d100b3
:102640000884d3008b05e8008904d1000884d300f6
:102650000001eb000281d2003a00070001f0a10066
:102660000cf0a70001f0a0002f0037006420e1006b
:10267000310032000801be000200be00f7ff370043
:102680006120e1002c0032006000b800f3ff370049
:102690000000200001f82700f0ff37006011b800ab
:1026a0004e003700881f7800030478000300e00024
:1026b00007003d0060001000e08018006001190074
:1026c000e081190002003b0001f02d0003003700fb
:1026d0004200070008f0a70001f0a0004f047800b6
:1026e000000006000004be006b0007000003be00ef
:1026f0000405be000200be0067000700844f75009d
:10270000000006000200be006450e1000500360033
:102710006420e100020036000968a30001003a00cd
:102720000800be000160a0004f0678004f05be0003
:102730004f04be0000000600f0ff2f00f1ff27004d
:10274000f9ff370081002000618055000b003d003b
:102750000b00200061fe2f000100e1001d0034008d
:1027600082817100610164008904d1000884d30072
:102770000000e800faff3a007100200061006400e8
:102780000300700002006000090032006104440090
:10279000e0844c000988a500050032008b05e800a4
:1027a0006808e10002003a008904d1000884d300df
:1027b000f20f20000258e10005003d00c75ddd007a
:1027c000f907b20089807500080078000000060053
:1027d0000bf827008b00780000000500889fbe00e2
:1027e0008a9fbe00008270000402710004827100a2
:1027f000260032000004be000200be006011b800d6
:102800006b092000950220000182cf000a003900e8
:102810000541b1000082cf00070039000541b10039
:102820000982cf00040039000541b1000882cf00c1
:10283000010039000541b10005425200120032008a
:102840000a003b0082817100610164008100d100b7
:102850000080d3008984d3000884d3008b05e8006e
:102860000442e800f7ff3a0007003700080444007c
:1028700089844c0000004800818048008b05e900f5
:102880000442e900f9ff3a00aeff07004f05be0021
:102890004f04be0000000600c70ade00f107b200c8
:1028a000f50fb20008003200e1cf42000200320012
:1028b0000170a00024000500810f700001003200ab
:1028c0000408050044000500810f700002003a0072
:1028d000140005008502e9000000400081c04800a6
:1028e000fcff3b000170a00024000500810378007c
:1028f000e9ff07000001be006000b8000478a300f3
:1029000013003a006220e10015003e000d0039007e
:102910008301d1000281d3008180d3008301d100e3
:102920000281d3008180d3008301d1000281d300d2
:102930008180d3000538b000c42add00f300b20066
:102940008381720007f0a70003f0a00000000600da
:10295000f3ff2700f2ff2f006110b900fbff3700e3
:1029600003ff2700f7ff37008f1fd1001402070075
:102970008f87e9000000e00000000600839f6800e8
:102980000100e00002003d0060001000e08018003f
:102990000300e00002003d0060011100e081190029
:1029a000e9fe07004f00e00002003b00600010005d
:1029b000e0801800000006002800fa00889fbe0092
:1029c0008a9fbe008c9fbe0003866b002502070015
:1029d0000028a30064003a000128a30067003a0021
:1029e0000008a30062003a000108a30065003a0055
:1029f0001e009000be08900081064000ed3fb1002f
:102a0000f4805700ee019000111ab8008e09900072
:102a1000311bb8009e099000311cb800511db80050
:102a2000f485570046000700fe0190003a000700b9
:102a30008b85e8003e0007008e09900040000700eb
:102a4000ee019000340007008b85e8003800070095
:102a50008e099000400007009e0990001b18b800e6
:102a6000890440000a854800fe01900034000700f8
:102a70008b85e80038000700ee0190003000070069
:102a80008e0990001b18b800890440000a85480090
:102a90000a98a30008003a000402420085824a0016
:102aa00006034b0087834b0008044c0089844c00cc
:102ab0000a054d008d06e9008482720085027300cc
:102ac0004c3add0085027200010032001500200042
:102ad000443ade001400b2004538de00cb45dd008c
:102ae0000b007000c540de00cb4ddd008b80700018
:102af0004549de00cb55dd000b017100c551de00fc
:102b00000d037800f001070003f0a1000cf0a7000e
:102b100003f0a000e70137001b18b8008502400051
:102b200006834800e0834b0060044c000700370038
:102b30001b18b8000603400087834800faff3700df
:102b40001b18b8008703400008844800e0844c004c
:102b500060054d00000006001b18b8000804400086
:102b600089844800faff37000108a300ce013a002b
:102b70005800be005801be00e3ff37000008a30064
:102b8000c9013a0009047800f9ff37002800fa006b
:102b9000889fbe008a9fbe008c9fbe0003866b008c
:102ba000b00107006400e100440032006408e10065
:102bb0004a0032006100e100460032006108e10095
:102bc00049003200ec0647006000b8003d02be003c
:102bd0003d03be00f48657006011b8003d04be00fe
:102be0003d05be007d0320000b0037000000a00063
:102bf0008d06e900130032000402420085824a007b
:102c000006034b0087834b00000040008180480092
:102c100002014900838149000802520089825a005a
:102c20000a035b008b835b00f0ff3b00080242005d
:102c300089824a000a034b008b834b008d06e90012
:102c4000edff3a008482720086827200f707b200bc
:102c50008782720001003200150020001e049000df
:102c60003e0b900006035400e63fb0000368a3004b
:102c7000070032000000a7000500a0008301d1007a
:102c80000281d3008180d3000080d3000603e800d6
:102c90008301d1000281d3008180d3000080d30062
:102ca0000002eb000482d2008701070003f0a100bc
:102cb0000cf0a70003f0a0007e013700640247007b
:102cc0006408e100780132003400be003401be0027
:102cd000f6ff37006108e100730132006011b800af
:102ce0006000b800f1ff370003ff2700020020005a
:102cf000fbff37001400fa00889fbe008a9fbe00c9
:102d00008c9fbe000004be000205be0068004700a4
:102d10000a90be000890be00970107000070a7004f
:102d20000bf0a100304320009e02900080825200f0
:102d3000b0fe2f000028e10011003d00b0fc2f0084
:102d40000028e100150034001e0990008e08900054
:102d50007e0090000501b0000201d1008180d30007
:102d60000080d3008502e800fbff3a000b00e00082
:102d700050013b0060001000e08018004d0137005a
:102d8000f0ff2f00f1ff27000b00e00049013b009e
:102d90000100280000002000460137006000b80054
:102da000440137004f89de00820178009901370025
:102db00007f0a200a7013700809feb000001070089
:102dc0008f87e9000000e00000000600defd07003c
:102dd0000400be0000000600889fbe008a9fbe005f
:102de00030044200b0844a0030054b0090854b000f
:102df0006000b1000898be000a90be00c100070044
:102e000002003100680040001008e8004f05be00d5
:102e10004f04be0000000600889fbe008a9fbe00cf
:102e20003004be002005be000418540005985c0064
:102e300006185d0007985d0011002000b100070032
:102e4000010039008000eb00108810004f05be0023
:102e50004f04be00000006001200fa00889fbe006a
:102e60008a9fbe008c9fbe00e0b79f00f1b79f0015
:102e700082bf9f0093bf9f000605be000404be00f2
:102e80000000eb00d0b79f00c0b79f00b0b79f0015
:102e9000a0b79f0090b79f000006eb005fb19700be
:102ea000cfb09700820141003fb097000200e000e0
:102eb00004003d00980007007e805700c6ff070011
:102ec00003003700940007007e805700d2ff070000
:102ed000dfb697000d00e0000c0035006fb29700e0
:102ee000ffb297000fbb97009fbb97001000200018
:102ef000010020006011b80000027200818272009f
:102f00000203730083837300580007000c06e80077
:102f100001042000810f5600e0ff3a000d00e000a0
:102f200004003d000802be000a03be007e80570078
:102f3000a9ff07005fa897000000e00005003a0025
:102f40001fb29700afb297003fb39700cfb397007f
:102f5000460007006fb09700ffb097000fb99700c9
:102f60009fb997004f06be004f05be004f04be003c
:102f70000080fa0000000600881f7800180020007a
:102f8000881f7800b4ff07008f87e9004f0478009e
:102f900000000600801feb00afff07008f87e900ed
:102fa00000000600889fbe008a9fbe003d0007000b
:102fb00007003d0040000700180020004500070002
:102fc00008003d002b0007000004eb00050037005f
:102fd0000004eb003f00070002003d002500070051
:102fe00018002000e4ff07000800e00001003200a4
:102ff0003d0007004f05be004f04be000000060064
:10300000889fbe008a9fbe008c1f780025000700a5
:1030100008003d00280007001c0020000820e100f7
:1030200009a8e1000ab0e1000bb8e10007003d008b
:10303000050037000006eb002600070003003d00f6
:103040006044b8006055b8000c000700d1ff0700cd
:103050000c00e00001003200230007004f0678005a
:103060004f05be004f04be00000006000800070028
:10307000000006006044b8006055b8000402540027
:1030800085825c0006035d0087835d00000006000a
:10309000a4b79f00b5b79f00c6b79f00d7b79f00e2
:1030a00000000600e00f5000e08f5800e00f5900cc
:1030b000e08f5900000006006044b8006055b80079
:1030c0000000540081805c0002015d0083815d008e
:1030d00000000600e00f5200e08f5a00e00f5b0096
:1030e000e08f5b00000006006022b8006033b8008b
:1030f0000000520081805a0002015b0083815b0066
:10310000000006000440e10005c8e10006d0e1002f
:1031100007d8e100000006004f09de00828171003f
:10312000b3b79f004f01de008180400082807000b5
:10313000a1b79f008fb097004f09de00000040004c
:103140000200700090b79f007fa897004f01de003b
:10315000818040008280700081b79f000d000700d1
:103160004f3ade000000400004007000f0af9f0006
:10317000080007000402420085824a0006034b0053
:1031800087834b00c2ff07000802be000a03be008f
:10319000000006002fb29700bfb297004fb3970010
:1031a000dfb3970000000600020ab900001bb90057
:1031b0000200b800810042008100430000000600c8
:1031c000889fbe008a9fbe008c9fbe000404be0084
:1031d0000605be00809fbe00829fbe001a01070048
:1031e000040678000800be000a01be0016010700b0
:1031f000840678004f03be004f02be008d4f76005c
:103200007fb0970013003300f0ff2f008b8f6b000f
:1032100006003b000d0666000c00a7000a00370000
:1032200007f0a600100020000a003700880f5200a7
:10323000898f5a008a0f5b008b8f5b000300390077
:103240001000200001003e000000200007f0a70051
:103250000000ea004f06be004f05be004f04be004e
:1032600000000600680447000294be000094be00ff
:10327000fc0447008694be008494be0009007800d8
:103280003d000700080078003b0007009900780027
:10329000814f70000b003b000800be00fc000700df
:1032a0004f00b10003003700f3ff2700f2ff2f00ab
:1032b0006110b9004f06be004f05be004f04be00ae
:1032c0000080fa00000006001800200057002000cf
:1032d000080453000d003d000600200097fc2f005d
:1032e0000740e1001e003400848272006102600029
:1032f0008301d1000281d3008180d3000080d300fc
:103300000804e800f8ff3a0047002000610460006c
:1033100005047400040464000d00320061004000e4
:10332000e080480060014900e081490003b8a50041
:10333000070032000603e8006538e10004003a00a7
:103340008301d1000281d3008180d3000080d300ab
:10335000f87f20000830e100030035000803780002
:103360006000b8006011b8004433dd00f300b20023
:103370008301730000000600800078005002be0048
:103380005003be004439de00f700b200f37f200096
:1033900003016100090032000218e10016003a0042
:1033a000850172008301730083817300000820008f
:1033b00015003a004000200013003700850172001c
:1033c000830173008381730005003a0004a8be00e6
:1033d00006a8be00100020000b0037000201e90023
:1033e0000402420085824a0006034b0087834b009b
:1033f0000748a300f9ff32000740a00004a8be0060
:1034000006a8be00200020008000980092009800ce
:1034100000000600881f7800030478000300e00025
:1034200007003d0060001000e080180060011900f6
:10343000e081190002003b0001f02d00030037007d
:10344000a100070008f0a70003f0a0004f047800d7
:10345000000006002800fa00889fbe008a9fbe0078
:103460008c9fbe0007067800878669000c003b0031
:10347000030478008704780008f0a10009f0a10097
:10348000840f5000858f5800860f5900890f5c000b
:10349000030033000cf0a20001003a000cf0a10080
:1034a00070ff07006400e1005f0032007801470010
:1034b0006408e100610032006c0147007485570028
:1034c0003200be001201be003a04be001a05be0062
:1034d0001e039000be0a90008503530006003d00c5
:1034e0000004fd008104fd000205fd008305fd00d0
:1034f0008703ea00050378000df8a30004003200fa
:1035000060041400e0841c0060051d00e0851d00bf
:103510006022b8007d0320000d38e1008006eb003a
:103520000b0039004433dd00f300b2008301730067
:1035300039003700848272000d027800e1066400d1
:103540008b85d1000a85d3008984d3000884d300f9
:103550008703e900f7ff3b0008004000898048002e
:103560000a0149008b81490004003b006000100003
:10357000e080180060011900e08119000358a300e1
:10358000090032008d827200848272006102600044
:103590008301d1000281d3008180d3000080d30059
:1035a0000603e8001b0037000348a30017003a0099
:1035b0000600e000170034000603e9000d00a30038
:1035c00000004800818048000201490083814900d1
:1035d0000348a3000f003a000600e0000900340091
:1035e0000603e90000004000818048000201490014
:1035f0008381490001003a000003eb000348a30067
:10360000f5ff32006022b8000200370084827200a9
:10361000618266002cff070003f0a1000cf0a700f8
:1036200003f0a00023ff3700640147006408e100b5
:1036300002003a000df8a3001bff3a003200be0062
:103640001201be001bff370005ff27000582610045
:10365000070032000428e1000100320024000500c8
:103660000600070001003a004400050004080500b8
:1036700002000700f9ff3a00140005006f826100a4
:103680008102700085027100850272000000060050
:10369000e48240001078a30007003200640240007a
:1036a0001178a3003400be001401be0004003200f3
:1036b0000330a700000006003500be001501be0063
:1036c0000330a00000000600889fbe00008270004a
:1036d000040271000482710024003200364320008d
:1036e000c50020008383cf000a0039000541b100e6
:1036f0008283cf00070039000541b1008183cf00ec
:10370000040039000541b1008083cf000100390079
:103710000541b10085c353006022b8001200320099
:103720000a003b0084827200610260008301d100c4
:103730000281d3008180d3000080d3000603e8001b
:103740008743e800f7ff3a00070037000000400019
:103750008180480002014900838149000603e90095
:103760008743e900f9ff3a00d7fe07004f04be0087
:04377000000006004f
:020000040000fa
:02000004000af0
:04afe000dfff00008f
:020000040000fa
:02000004000af0
:04afe400efff00007b
:020000040000fa
:02000004000af0
:04afe800eaff00007c
:020000040000fa
:02000004000af0
:04afec007fff0000e3
:020000040000fa
:02000004000af0
:04aff00078ff0000e6
:020000040000fa
:02000004000af0
:04aff400ffff00005b
:020000040000fa
:04003400902b00000d
:020000040000fa
:040054009a2b0000e3
:020000040000fa
:1037740024240000240000000d0a0000004300007f
:103784004d4400000d0a0000006a00006f6900004b
:103794006e0d000000410000737300006f630000b1
:1037a4006961000074650000642100000d000000e0
:1037b4004c69000073740000656e00000065000031
:1037c40078690000740d00000045000058490000ad
:1037d400540d00000a0000002a5200004541000078
:1037e400445900002a000000736c00006565000065
:1037f400700d0000007300006c650000657000002f
:10380400000000007b220000746500006d70000061
:10381400657200006174000075720000652200008a
:103824003a20000025660000202c000022700000d1
:103834007265000073730000757200006522000059
:103844003a200000256600002c20000022680000b9
:10385400756d00006964000069740000792200003d
:10386400203a000020250000662c000020220000e1
:103874006c6f000063610000746900006f6e0000eb
:10388400222000003a20000025640000207d000072
:043894000000000030
:020000040000fa
:103898001800fa00889fbe008a9fbe008c9fbe0059
:1038a80060079800710798006e009000fe00900075
:1038b8004d0add004301de0002017200c389de000b
:1038c800009480008000eb000000400081804800e8
:1038d800000151008181590010948000cf80de00e2
:1038e800809bb90086027800828ab90084824200ef
:1038f8000010b8008182420085007800c509dd000b
:103908004b01de0002817100220f98004b8ade0015
:10391800340f98002e099000be099000028fbe0057
:103928006e009000fe0090004c0add00c401de002d
:1039380083017200030f9800c48ade00150f9800f7
:10394800009480008000eb000e0a90009e0a900010
:103958000001520081815a006e009000fe00900024
:10396800cc0add004406de000c867200c48ede0040
:10397800009480008000eb000000560081805e000b
:10398800809ab900828bb90086027800050242004d
:103998000010b80001024200840078004409dd00ec
:1039a8004c03de0006037100cc8bde0020948000ff
:1039b800cf80de0080b9b900868ab900840178001a
:1039c800030141000030b800010141008200780085
:1039d800c20add004e05de000a857200ce8dde00cb
:1039e8002a0798003b0798002e009000be00900020
:1039f8003e014000ae8148000200be000080880001
:103a0800118088000080800011808000e509b900dd
:103a1800e002b9008401780003014100530020004e
:103a28000300b80001014100820078000008b000de
:103a38000180b000c80add004804de000884720076
:103a4800c88cde0048079800590798004e0090007f
:103a5800de0090004f06be004f05be004f04be00ba
:103a68000080fa00000006003400fa00889fbe00bb
:103a78008a9fbe008c9fbe0060079800710798005f
:103a880000808000118080008181d1000081d300f6
:103a980000602000f1ff2f000200400083804800f2
:103aa80020079800310798002e009000be00900073
:103ab8004e09dd004203de0006037100c28bde0002
:103ac8002e009000be009000ce09dd004202de000c
:103ad80004827100c28ade0084b9b90086a8b900e0
:103ae800000141000430b800010141008200780063
:103af800450add004b04de0008047200cb8cde00b2
:103b080080948000cf80de0080cbb90086017800e9
:103b18008889b900828141000040b8008181410054
:103b280083007800400798005107980040079800e4
:103b380051079800709480006101b9002e00900030
:103b48008382b9003e0090008280b90000024200e2
:103b58002e0090000200b8000102420084007800a4
:103b680000014000818148004e009000de00900076
:103b780000004100818049004007980051079800e3
:103b88004e009000de0090004e09dd004204de0089
:103b980008047100080f9800c289de00130f98000e
:103ba80060948000cf80de00c000dd0000002000af
:103bb8000e0a90009e0a900004004000858048008c
:103bc8004007980051079800509480006102b9009e
:103bd8002e009000be0090004e0bdd004206de0075
:103be8000c067300c28ede002e009000be0090000e
:103bf8004e0cdd004205de000a057400c28dde00b1
:103c08008ae9b9008cd8b900000141000a60b800ff
:103c18000101410082007800c309dd004d01de008a
:103c280002817100220f98004d8bde00360f98003c
:103c38002e0c900088a9b900be0890008488b900ad
:103c480000014100ae0990000320b80001014100c5
:103c580082007800cd0add004302de000482720093
:103c6800440f9800438bde00560f98004094800064
:103c78006101b9002e0090008382b9003e009000d7
:103c88008280b900000242002e0090000200b800b5
:103c980001024200840078008180d1000080d300b6
:103ca8004e099000de099000020040008380480021
:103cb800c289de00231798004f8ade003417980067
:103cc8002e119000be11900022079800330798002b
:103cd8002e019000be019000000028000100200085
:103ce8000201400083814800309480008000eb008e
:103cf800809ab900828bb9008602780005024200da
:103d08000010b80001024200840078004109dd007b
:103d18004f04de000804710048179800cf89de00c0
:103d2800531798004e129000de1290002407980056
:103d3800350798002e009000be009000e00f50005c
:103d4800e08f580002003a006000b8008c0037008d
:103d58006e009000fe00900060001000e0801800e7
:103d68000001be004e009000de009000440bdd0014
:103d7800cc02de0085027300650f98004c8cde00d3
:103d8800780f98006e089000fe089000000051001f
:103d98008180590052c320008289b900e002b9002d
:103da800840178000301410053c320000300b800d8
:103db80001014100820078000200200003352c0038
:103dc800021f4000039748001e00be00e00f50008d
:103dd800e08f58000a0035001e00be0000024000b7
:103de800818248002e009000be0090000001be00b5
:103df8000400be00d2f90700008fbe00080037009b
:103e08002e009000be0090000001be001e00be0003
:103e1800cbf907000000400081804800008fbe00f9
:103e2800b09480006101b9001e00be00c30ade0024
:103e38004d0bdd004302de00040273001e00be00cd
:103e48004d0cdd004300de0000007400c308de00f6
:103e580080abb900848cb90088037800070343005d
:103e68000020b8000103430086007800430add0003
:103e78004d00de0000007200cd08de00809ab90017
:103e8800828bb90086027800050242000010b80053
:103e980001024200840078004409dd004c04de0081
:103ea8000804710068179800cc89de007317980021
:103eb8006e129000fe1290002407980035079800b3
:103ec8001e00be00ce0add004200de000080720047
:103ed800c208de000001be00a0948000cf80de0092
:103ee800809ab900828bb9008602780005024200e8
:103ef8000010b80001024200840078004309dd0088
:103f08004d04de0008047100081f9800cd89de000a
:103f1800131f98000e1a90009e1a900044079800ec
:103f2800550798002e019000be0190004e009000a9
:103f3800de009000020140008381480090948000d8
:103f4800cf80de0002004000838048004c0bdd007b
:103f5800c402de008502730005179800448cde0059
:103f6800181798001e00be000e1190009e119000b8
:103f78000200400083804800008fbe001e00be0083
:103f88004f06be004f05be004f04be000080fa0079
:103f9800000006002400fa00889fbe008a9fbe0029
:103fa8008c9fbe002007980031079800028080008f
:103fb8001380800000402d00e1ff2f00001f41000a
:103fc800019749002e009000be0090004e09dd00c8
:103fd800c201de00830171004e01dd00f094800013
:103fe800cf80de00c400dd00000020000003510087
:103ff80081835900009580006101b9001e00780096
:104008008382b9001e0090008280b900000242003d
:104018001e0078000200b800010242008400780007
:104028000001530081815b00000024000100200092
:104038000200400083804800c109dd004f01de0016
:1040480002817100420798004f8ade0054079800e9
:10405800202a2100104078000081fb008001eb003d
:104068001e0078008382b9001e0090008280b9008b
:10407800000242001e0078000200b800010242005f
:1040880084007800c60add004a04de000884720055
:10409800ca8cde00c0292100104078000081fb0096
:1040a8008001eb001e0078008382b9001e0090009a
:1040b8008280b900000242001e0078000200b800a9
:1040c8000102420084007800c509dd004b01de00d2
:1040d80002817100620798004b8ade00740798001d
:1040e80000002800010020006e019000fe019000f1
:1040f800020040008380480080cab900840178002b
:104108008889b900828141000040b800818141005e
:10411800830078004609dd00ca02de0085027100ce
:10412800050f9800ca89de00130f980000002000d0
:10413800010220000e0a90009e0a9000040140002f
:1041480085814800d0948000cf80de00809ab90035
:1041580084027800828ab900848242000011b80083
:1041680083824200850178000000220001002000bf
:1041780002004000838048004209dd00ce02de00d4
:1041880085027100250f9800ce89de00330f980054
:104198005e029000ae0a900085a1b900be089000aa
:1041a800ce0190008388b900000141004e029000c2
:1041b800ae0a90000520b800010141008200780095
:1041c800008fbe00008fbe001e00be00c109dd00ca
:1041d8004f01de0002817100420f98004f8ade0015
:1041e800540f98001e00be00c10add004f06de0015
:1041f8000c867200cf8ede00de0890008c89b90034
:10420800ce09900083e8b900000141004e0a9000f1
:104218000c20b8000101410082007800c90add00c5
:104228004705de000a857200c78dde00802921005f
:10423800104078000080fb008000eb0080d9b900b6
:104248008a8ab90084017800030141000050b8004f
:1042580001014100820078004c09dd00c402de0043
:1042680085027100650f9800c489de00730f9800fd
:104278006e0a9000fe0a90001e1f12001e971a0078
:104288001e00be00e00f5000e08f580001003d0006
:104298006000b800008fbe001e00be0002002000b3
:1042a80003902100820f5000838f580002003400d1
:1042b8000000200001902100008fbe001e00be00fb
:1042c8004409dd00cc02de00850271000517980064
:1042d800cc89de00131798000e1090009e109000f5
:1042e8004f06be004f05be004f04be000080fa0016
:1042f800000006000600fa00c0ceb3006205070001
:1043080040cfb30072050700d0ceb30067050700a1
:104318000662a8002705070000108000004078000a
:10432800004f780006a2a8000682a8002105070011
:1043380006a2a9006d0507000080fa00000006002b
:104348000200fa00c0ceb3004f05070020cfb3002b
:104358005f05070010c0b3005d050700630507008f
:10436800407621000100200041f00700c0ceb300d4
:104378004505070080c8b30055050700d0ceb30037
:104388004a0507000000eb00000f78000b0037001b
:104398000662a8000705070000108000804078002a
:1043a800402a21001e0040000148780006a2a9000a
:1043b8000682a800ff0407001e0fe8001e00780010
:1043c800f80f5000f2ff34000662a800f904070055
:1043d8000010800080407800d02b21000148780030
:1043e80006a2a8000682a800f204070006a2a900f7
:1043f8003e05070040762100010020001cf0070060
:10440800c0ceb3002005070010ceb300300507006a
:10441800d0ceb30025050700a0012000000f7800ca
:104428000b0037000662a800e204070000108000b5
:1044380080407800402a21001e0040000148780092
:1044480006a2a9000682a800da0407001e0fe800e9
:10445800800220009e007800808f5000f1ff340019
:104468000662a800d304070000108000804078008e
:10447800d02c21000148780006a2a8000682a800d6
:10448800cc04070006a2a900180507006200200056
:10449800412a210000282100bdf00700a02a2100a0
:1044a800220120008000780060282100b8f0070071
:1044b800d02b210090407800802921000148780005
:1044c800e02b2100104078000080fb00d094880089
:1044d800d094800080007800f02b210010407800f4
:1044e8000080fb004800dd0001007000d0948800c7
:1044f800002c210090407800c02921000148780054
:10450800102c2100104078000080fb004400dd00e2
:10451800f0948800f1948000202c2100104078004d
:104528000080fb006f00600001007000f0948800bc
:10453800202c2100104078000080fb004400de00a1
:10454800004078000080fb000095880001958000fd
:10455800302c2100104078000080fb004400dd0072
:104568000100700000958800402c210090407800e0
:10457800202a2100014878000080fa000000060087
:104588000000fa00c0ceb300bf04070040cfb3005c
:10459800cf04070050c2b300cd040700d3040700be
:1045a8000080fa00000006000200fa00c0ceb30046
:1045b800b504070030cfb300c5040700d0ceb30060
:1045c800ba0407000662a8007a04070000108000f9
:1045d80000407800004f780006a2a8000682a800d4
:1045e8007404070006a2a900c00407001e40780052
:1045f8000080fb00680060000000e000020032005c
:1046080010c0b300010037000040eb000080fa0042
:10461800000006001400fa00c0ceb3009a04070098
:1046280070cfb300aa040700d0ceb3009f040700e0
:104638000662a8005f0407000010800000407800b0
:10464800404f98000682a8005a0407000662a80096
:10465800580407000010800000407800504f980070
:104668000682a800530407000662a8005104070048
:104678000010800000407800604f98000682a80073
:104688004c0407000662a8004a04070000108000d6
:1046980000407800704f98000682a8004504070083
:1046a8000662a8004304070000108000004078005c
:1046b800005798000682a8003e0407000662a8007a
:1046c8003c04070000108000004078001057980054
:1046d8000682a800370407000662a8003504070010
:1046e8000010800000407800205798000682a8003b
:1046f800300407000662a8002e040700001080009e
:10470800004078003057980006a2a8000682a8004a
:104718002804070006a2a900740407006000b80076
:10472800008fbe006000b80020079800310798008d
:104738006000b80040079800510798001e5090008c
:104748000080fb004400de00004078000080fb0091
:104758008000eb00008fbe000e5090000081fb002f
:104768008001eb004418dd00cc10de0081007000f1
:104778004410dd001e1f70001e9770007e489000d8
:104788000081fb008001eb004c18dd00c410de0046
:10479800810070004c10dd001e1f70001e97700015
:1047a8006e4890000080fb004400de000040780066
:1047b8000080fb008000eb0020079800310798007c
:1047c8005e4890000081fb008001eb004418dd008a
:1047d800cc10de00810070004410dd002e01900036
:1047e800be019000000071008180710020079800d0
:1047f800310798004e4890000081fb008001eb00d3
:104808004c18dd00c410de00810070004c10dd0083
:104818002e019000be01900000007100818071009f
:1048280020079800310798003e5090000080fb0058
:104838008000eb0040079800510798002e50900028
:104848000081fb008001eb004818dd00c810de0085
:10485800810070004810dd004e019000de019000dc
:10486800000071008180710040079800510798008e
:104878001e00be0006fc070041f7070002002000ea
:10488800832c240041f707002080880031808800ad
:104898002e009000be00900073fc07007df7070013
:1048a80002002000832c240038f70700408088008d
:1048b800518088004e009000de009000b5fd070092
:1048c80074f7070002002000034824002ff70700b0
:1048d8006080880071808800000000000080fa0075
:1048e800000006000000fa0050182000401188005f
:1048f80021e2a8002342a8001134800000fc2f0008
:10490800008060000000a00010348800213680007c
:1049180000f82f00008060004001b30020368800b6
:10492800008ea80021428000f0ff2800008060006f
:1049380000c0a000204288000168a9002168a800e2
:1049480010002000008188000080fa0000000600a6
:104958000800fa002007980031079800ae00900080
:10496800010f78000000eb00100798000e003700d8
:10497800000000001111800000202000008060006d
:104988000000e000fbff3a001e00780010407800ad
:104998000000fb00201188001e0fe8001e00900098
:1049a8000000e800100798009e0090003e0090006c
:1049b800808f5000eeff35000080fa0000000600ee
:1049c8000400fa00100798009e009000010f78007c
:1049d8000b003700000000001111800000202000ab
:1049e800008060000000e000fbff3a001e00780035
:1049f800104078000000fb00201188001e0fe8001e
:104a08001e007800104078000004e000f1ff3a0032
:104a18000080fa00000006000200fa000081800011
:104a28000000e00001003a00880007001c70ef0059
:104a3800021020008000eb0080122100a9ef07007f
:104a480000818000e20f500025003200e0f82a00c3
:104a5800d102200086ee0700a0bb2900d8ff07007e
:104a6800909e2e000100200081ee0700a1bb2900c6
:104a780080122100a2ef0700000f78001e007800c6
:104a88000000e00006003200e0bb2900ccff070070
:104a980020002000008188000040eb001300370050
:104aa80011bc29008012210095ef0700000f780043
:104ab800f08080000000e800f0808800f18080002d
:104ac800401f2000808f500002003a0010c0b30041
:104ad800060037001e0078000000e000e0ff32000a
:104ae80020002000008188000040eb000080fa00d0
:104af800000006000200fa001e30ef001c70ef00f4
:104b0800021020008000eb008012210075ef0700e2
:104b1800c1ff07000004e0000200320010c0b3002b
:104b28004800370070bc2900a5ff0700909e2e00a2
:104b3800010020004eee0700d1bc290080122100a0
:104b48006fef0700000f7800f08080000000e80099
:104b5800f0808800f1808000007d2000808f500068
:104b680002003a0010c0b300360037001e0078007b
:104b78000000e000edff32001e30ef00909e2e0096
:104b8800010020003aee0700a1bd29008012210093
:104b98005bef0700000f7800f08080000000e8005d
:104ba800f0808800f1808000007d2000808f500018
:104bb80002003a0010c0b300220037001e0078003f
:104bc8000000e000edff3200021020008000eb0042
:104bd8008012210043ef07001c70ef001e30ef0029
:104be80010be290076ff0700909e2e0001002000cd
:104bf8001fee070071be29008012210040ef070058
:104c0800000f7800f08080000000e800f080880045
:104c1800f1808000401f2000808f500003003a0080
:104c28000000000010c0b300060037001e00780026
:104c38000000e000ecff3200100020000081880036
:104c48000040eb000080fa00000006000200fa00b5
:104c58001e30ef001c70ef00021020008000eb00f7
:104c6800801221001fef07001c70ef00f00f2000da
:104c78002011880000000000111180000020200091
:104c8800008060000000e000fbff3a004076210051
:104c980001002000f6ed0700e1be29008012210086
:104ca80017ef0700000f7800f08080000000e80090
:104cb800f0808800f1808000007d2000808f500007
:104cc80002003a0010c0b300060037001e0078004a
:104cd8000000e000edff3200100020000081880095
:104ce8000040eb000080fa00000006000200fa0015
:104cf80049ff07000004e0000200320010c0b300c2
:104d08001f0037001e30ef001c70ef00021020005b
:104d18008000eb0080122100f2ee070060bf29003e
:104d280027ff0700909e2e0001002000d0ed07000d
:104d3800d1bf290080122100f1ee0700000f780092
:104d4800f08080000000e800f0808800f18080009a
:104d5800401f2000808f500004003a0030002000df
:104d68000081880010c0b300050037001e007800dd
:104d78000000e000ebff32002030ef000040eb00c5
:104d88000080fa00000006001800fa00100f9800d2
:104d9800210f9800320f98002e0890008080e800bc
:104da8003000200000017800110009008200d800be
:104db800c200dd003e089000010878003e0890001f
:104dc8001000780048ee0700000f78001e007800f9
:104dd8000000e00002003a000000eb00d9003700b4
:104de8002430ef002630ef00b70037002181800023
:104df8002e089000808f50000a003d00228180001c
:104e0800020078009e089000008040001040780062
:104e18000080fb008000eb000201e800228188008e
:104e2800010037006000b8001007980021079800bb
:104e3800218180002e089000808f50000a003d00dc
:104e480022818000020078009e08900000804000c7
:104e5800104078000080fb008000eb000201e800b1
:104e680022818800010037006000b80030079800f0
:104e780041079800218180002e089000808f500003
:104e88000a003d0022818000020078009e08900000
:104e980000804000104078000080fb008000eb009c
:104ea8000201e80022818800010037006000b80094
:104eb80050079800610798001e009000ae0090000f
:104ec800c001dd00020020003e029000ce029000ea
:104ed8004828dd00c820de00810070004820dd0081
:104ee80002014000838148005e009000ee009000bf
:104ef800020040008380480070079800010f980066
:104f080034818000040078009e0240007e009000fa
:104f18008e0890004209de0003002000f003200004
:104f28000100200002037800030178008001780066
:104f38000100780003036300000061008000eb00bb
:104f4800c000dd00000020000001be006130b80094
:104f58000001710081817100e02c210002004000f5
:104f680010407800804a78000400e800308188000a
:104f780034818000040078009e0240007e0090008a
:104f88008e089000cc09de00440bdd004c01de00e9
:104f980002017300f00320000100200002037800e2
:104fa80003017800800178000100780003036300a2
:104fb800000061008000eb00c000dd000000200060
:104fc8000001be006130b8000001710081817100ec
:104fd800e02c21000200400010407800804a780050
:104fe8000400e800308188003481800004007800e3
:104ff8009e0240007e0090008e089000c609de00e8
:105008004a0bdd004601de0002017300f0032000b8
:105018000100200002037800030178008001780075
:105028000100780003036300000061008000eb00ca
:10503800c000dd00000020000001be006130b800a3
:105048000001710081817100e02c21000200400004
:1050580010407800804a78000400e8003081880019
:1050680034818000040078009e0240007e01900098
:105078008e099000f0032000010020000203780050
:1050880003017800800178000100780003036300c1
:10509800000061008000eb00c000dd00000020007f
:1050a8000001be006130b80000017100818171000b
:1050b800e02c21000200400010407800804a78006f
:1050c8000400e80030818800218180002e089000cb
:1050d800808f500045ff35002430ef000b0037006b
:1050e8003e089000100078008000e90020818000d0
:1050f800008050001e004000d1c3b3000148780072
:10510800208180000000e80020818800ae0890001f
:105118003000200000017800110009008200d8004a
:105128008000fd0080004000e03021000080400049
:105138009000780020818000808f5000e8ff3c00bc
:0c5148001e0078000080fa000000060045
:020000040000fa
:10515400ce120000460000008200000041424300dd
:1051640044454600474849004a4b4c004d4e4f00c9
:10517400505152005354550056575800595a610023
:10518400626364006566670068696a006b6c6d0041
:105194006e6f7000717273007475760077787900a1
:1051a4007a303100323334003536370038392b0049
:1051b4002f00000002000100000000002210000087
:1051c4000600000080000000801200004e00000075
:1051d40080000000001000001000000080000000ab
:1051e4002810000000010000820000002f300000a1
:1051f40000000000000000000000000000000000ab
:10520400000000000000000000000000000000009a
:10521400000000000000000000000000000000008a
:10522400000000000000000000000000000000007a
:10523400000000000000000000000000000000006a
:10524400000000000000000000000000000000005a
:10525400000000000000000000000000000000004a
:10526400000000000000000000000000000000003a
:10527400000000000000000000000000000000002a
:10528400000000000000000000000000000000001a
:10529400000000000000000000000000000000000a
:1052a40000000000000000000000000000000000fa
:1052b40000000000000000000000000000000000ea
:1052c40000000000000000000000000000000000da
:1052d40000000000000000000000000000000000ca
:1052e40000000000000000000000000000000000ba
:1052f40000000000000000000000000000000000aa
:105304000000000000000000000000000000000099
:105314000000000000000000000000000000000089
:105324000000000000000000000000000000000079
:105334000000000000000000000000000000000069
:1053440000000000101000000a00000080000000af
:105354002811000000010000800000001a10000065
:105364000800000080000000541300000200000048
:10537400820000000400000050130000040000003c
:1053840080000000361300001a00000082000000b4
:10539400686a6c00747a4c0000000100000200008e
:1053a4000400080000100000000020002b2d230042
:1053b40030000000281200005800000082000000a5
:1053c4006e616e00004e41004e0069006e66000082
:1053d400494e460000000000000000000024400088
:1053e4000000000000000000594000000000000020
:1053f4000088c3004000000000008400d7974100eb
:105404000080e0003779c300414317006e05b50002
:10541400b5b8930046f5f9003fe903004f384d0055
:10542400321d3000f9487700825a3c00bf737f0078
:10543400dd4f150075000000141300002200000069
:105444008200000030313200333435003637380002
:1054540039414200434445004600300031323300b4
:10546400343536003738390061626300646566009c
:10547400000000005613000002000000820000003b
:1054840030000000581300000200000080000000fb
:045494000000000014
:020000040000fa
:105498000000fa004427ef00213a8000f0f32f00c3
:1054a80000806000203a8800213a800000fe2f002a
:1054b80000806000203a88004567a900f0032000ba
:1054c800303a88001200200080072000a10920003f
:1054d8003374200080497800814978008249780037
:1054e800103a8000000178000200a000600420004b
:1054f80071052000237420008049780081497800d4
:105508008249780000000000113a8000000027005e
:105518008080600000002100808f5000faff3a0070
:1055280000000000113a80000002200000806000a6
:105538000000e000fbff32000e2eef001e2eef00f1
:10554800102eef00002eef0005e1a9000421a900ac
:1055580004c1a90021088000000320000100700098
:10556800200888000021ef00f0b525001008880009
:1055780001428000f0ff28000080600000c0a00009
:10558800004288000068a9002068a80005e1a8007a
:10559800d4fc0700b00007000080fa0000000600f5
:1055a8000000fa00baff070010c0b3003900070076
:1055b80063fb07004ffd070016f0b70016d0bf00c9
:1055c8000004e0002b003a0010c0b30031000700cf
:1055d8001070ef00eafb0700e9fb07000300370043
:1055e800c031220091002000a1eb0700eefb07006c
:1055f8000004e000faff320006fc07006480800027
:105608007580800042808000538080002080800068
